{
  "contractName": "musicbitboom",
  "abi": [
    {
      "inputs": [],
      "stateMutability": "nonpayable",
      "type": "constructor"
    },
    {
      "anonymous": false,
      "inputs": [
        {
          "indexed": true,
          "internalType": "address",
          "name": "owner",
          "type": "address"
        },
        {
          "indexed": true,
          "internalType": "address",
          "name": "approved",
          "type": "address"
        },
        {
          "indexed": true,
          "internalType": "uint256",
          "name": "tokenId",
          "type": "uint256"
        }
      ],
      "name": "Approval",
      "type": "event"
    },
    {
      "anonymous": false,
      "inputs": [
        {
          "indexed": true,
          "internalType": "address",
          "name": "owner",
          "type": "address"
        },
        {
          "indexed": true,
          "internalType": "address",
          "name": "operator",
          "type": "address"
        },
        {
          "indexed": false,
          "internalType": "bool",
          "name": "approved",
          "type": "bool"
        }
      ],
      "name": "ApprovalForAll",
      "type": "event"
    },
    {
      "anonymous": false,
      "inputs": [
        {
          "indexed": true,
          "internalType": "address",
          "name": "from",
          "type": "address"
        },
        {
          "indexed": true,
          "internalType": "address",
          "name": "to",
          "type": "address"
        },
        {
          "indexed": true,
          "internalType": "uint256",
          "name": "tokenId",
          "type": "uint256"
        }
      ],
      "name": "Transfer",
      "type": "event"
    },
    {
      "inputs": [
        {
          "internalType": "address",
          "name": "",
          "type": "address"
        }
      ],
      "name": "allowedMinters",
      "outputs": [
        {
          "internalType": "bool",
          "name": "",
          "type": "bool"
        }
      ],
      "stateMutability": "view",
      "type": "function"
    },
    {
      "inputs": [
        {
          "internalType": "address",
          "name": "to",
          "type": "address"
        },
        {
          "internalType": "uint256",
          "name": "tokenId",
          "type": "uint256"
        }
      ],
      "name": "approve",
      "outputs": [],
      "stateMutability": "nonpayable",
      "type": "function"
    },
    {
      "inputs": [
        {
          "internalType": "address",
          "name": "owner",
          "type": "address"
        }
      ],
      "name": "balanceOf",
      "outputs": [
        {
          "internalType": "uint256",
          "name": "",
          "type": "uint256"
        }
      ],
      "stateMutability": "view",
      "type": "function"
    },
    {
      "inputs": [],
      "name": "baseTokenURI",
      "outputs": [
        {
          "internalType": "string",
          "name": "",
          "type": "string"
        }
      ],
      "stateMutability": "view",
      "type": "function"
    },
    {
      "inputs": [
        {
          "internalType": "uint256",
          "name": "tokenId",
          "type": "uint256"
        }
      ],
      "name": "burn",
      "outputs": [],
      "stateMutability": "nonpayable",
      "type": "function"
    },
    {
      "inputs": [
        {
          "internalType": "uint256",
          "name": "tokenId",
          "type": "uint256"
        }
      ],
      "name": "getApproved",
      "outputs": [
        {
          "internalType": "address",
          "name": "",
          "type": "address"
        }
      ],
      "stateMutability": "view",
      "type": "function"
    },
    {
      "inputs": [
        {
          "internalType": "address",
          "name": "owner",
          "type": "address"
        },
        {
          "internalType": "address",
          "name": "operator",
          "type": "address"
        }
      ],
      "name": "isApprovedForAll",
      "outputs": [
        {
          "internalType": "bool",
          "name": "",
          "type": "bool"
        }
      ],
      "stateMutability": "view",
      "type": "function"
    },
    {
      "inputs": [],
      "name": "name",
      "outputs": [
        {
          "internalType": "string",
          "name": "",
          "type": "string"
        }
      ],
      "stateMutability": "view",
      "type": "function"
    },
    {
      "inputs": [
        {
          "internalType": "uint256",
          "name": "",
          "type": "uint256"
        }
      ],
      "name": "nftsIpfsHashes",
      "outputs": [
        {
          "internalType": "string",
          "name": "",
          "type": "string"
        }
      ],
      "stateMutability": "view",
      "type": "function"
    },
    {
      "inputs": [],
      "name": "owner",
      "outputs": [
        {
          "internalType": "address",
          "name": "",
          "type": "address"
        }
      ],
      "stateMutability": "view",
      "type": "function"
    },
    {
      "inputs": [
        {
          "internalType": "uint256",
          "name": "tokenId",
          "type": "uint256"
        }
      ],
      "name": "ownerOf",
      "outputs": [
        {
          "internalType": "address",
          "name": "",
          "type": "address"
        }
      ],
      "stateMutability": "view",
      "type": "function"
    },
    {
      "inputs": [
        {
          "internalType": "address",
          "name": "from",
          "type": "address"
        },
        {
          "internalType": "address",
          "name": "to",
          "type": "address"
        },
        {
          "internalType": "uint256",
          "name": "tokenId",
          "type": "uint256"
        }
      ],
      "name": "safeTransferFrom",
      "outputs": [],
      "stateMutability": "nonpayable",
      "type": "function"
    },
    {
      "inputs": [
        {
          "internalType": "address",
          "name": "from",
          "type": "address"
        },
        {
          "internalType": "address",
          "name": "to",
          "type": "address"
        },
        {
          "internalType": "uint256",
          "name": "tokenId",
          "type": "uint256"
        },
        {
          "internalType": "bytes",
          "name": "_data",
          "type": "bytes"
        }
      ],
      "name": "safeTransferFrom",
      "outputs": [],
      "stateMutability": "nonpayable",
      "type": "function"
    },
    {
      "inputs": [
        {
          "internalType": "address",
          "name": "operator",
          "type": "address"
        },
        {
          "internalType": "bool",
          "name": "approved",
          "type": "bool"
        }
      ],
      "name": "setApprovalForAll",
      "outputs": [],
      "stateMutability": "nonpayable",
      "type": "function"
    },
    {
      "inputs": [],
      "name": "symbol",
      "outputs": [
        {
          "internalType": "string",
          "name": "",
          "type": "string"
        }
      ],
      "stateMutability": "view",
      "type": "function"
    },
    {
      "inputs": [
        {
          "internalType": "uint256",
          "name": "index",
          "type": "uint256"
        }
      ],
      "name": "tokenByIndex",
      "outputs": [
        {
          "internalType": "uint256",
          "name": "",
          "type": "uint256"
        }
      ],
      "stateMutability": "view",
      "type": "function"
    },
    {
      "inputs": [
        {
          "internalType": "address",
          "name": "owner",
          "type": "address"
        },
        {
          "internalType": "uint256",
          "name": "index",
          "type": "uint256"
        }
      ],
      "name": "tokenOfOwnerByIndex",
      "outputs": [
        {
          "internalType": "uint256",
          "name": "",
          "type": "uint256"
        }
      ],
      "stateMutability": "view",
      "type": "function"
    },
    {
      "inputs": [],
      "name": "totalSupply",
      "outputs": [
        {
          "internalType": "uint256",
          "name": "",
          "type": "uint256"
        }
      ],
      "stateMutability": "view",
      "type": "function"
    },
    {
      "inputs": [
        {
          "internalType": "address",
          "name": "from",
          "type": "address"
        },
        {
          "internalType": "address",
          "name": "to",
          "type": "address"
        },
        {
          "internalType": "uint256",
          "name": "tokenId",
          "type": "uint256"
        }
      ],
      "name": "transferFrom",
      "outputs": [],
      "stateMutability": "nonpayable",
      "type": "function"
    },
    {
      "inputs": [],
      "name": "showOwner",
      "outputs": [
        {
          "internalType": "address",
          "name": "",
          "type": "address"
        }
      ],
      "stateMutability": "view",
      "type": "function"
    },
    {
      "inputs": [],
      "name": "totalMint",
      "outputs": [
        {
          "internalType": "uint256",
          "name": "",
          "type": "uint256"
        }
      ],
      "stateMutability": "view",
      "type": "function"
    },
    {
      "inputs": [
        {
          "internalType": "address",
          "name": "addr",
          "type": "address"
        }
      ],
      "name": "approveMinter",
      "outputs": [],
      "stateMutability": "nonpayable",
      "type": "function"
    },
    {
      "inputs": [
        {
          "internalType": "string",
          "name": "ipfsHash",
          "type": "string"
        }
      ],
      "name": "mint",
      "outputs": [],
      "stateMutability": "nonpayable",
      "type": "function"
    },
    {
      "inputs": [
        {
          "internalType": "string",
          "name": "baseURI",
          "type": "string"
        }
      ],
      "name": "setBaseURI",
      "outputs": [],
      "stateMutability": "nonpayable",
      "type": "function"
    },
    {
      "inputs": [
        {
          "internalType": "uint256",
          "name": "tokenId",
          "type": "uint256"
        }
      ],
      "name": "tokenURI",
      "outputs": [
        {
          "internalType": "string",
          "name": "",
          "type": "string"
        }
      ],
      "stateMutability": "view",
      "type": "function"
    },
    {
      "inputs": [
        {
          "internalType": "bytes4",
          "name": "interfaceId",
          "type": "bytes4"
        }
      ],
      "name": "supportsInterface",
      "outputs": [
        {
          "internalType": "bool",
          "name": "",
          "type": "bool"
        }
      ],
      "stateMutability": "view",
      "type": "function"
    }
  ],
  "bytecode": "0x608060405260405180606001604052806022815260200162003e7960229139600c90816200002e919062000390565b503480156200003c57600080fd5b506040518060400160405280600c81526020017f4d75736963426974426f6f6d00000000000000000000000000000000000000008152506040518060400160405280600381526020017f4d424200000000000000000000000000000000000000000000000000000000008152508160009081620000ba919062000390565b508060019081620000cc919062000390565b50505033600b60006101000a81548173ffffffffffffffffffffffffffffffffffffffff021916908373ffffffffffffffffffffffffffffffffffffffff16021790555062000477565b600081519050919050565b7f4e487b7100000000000000000000000000000000000000000000000000000000600052604160045260246000fd5b7f4e487b7100000000000000000000000000000000000000000000000000000000600052602260045260246000fd5b600060028204905060018216806200019857607f821691505b602082108103620001ae57620001ad62000150565b5b50919050565b60008190508160005260206000209050919050565b60006020601f8301049050919050565b600082821b905092915050565b600060088302620002187fffffffffffffffffffffffffffffffffffffffffffffffffffffffffffffffff82620001d9565b620002248683620001d9565b95508019841693508086168417925050509392505050565b6000819050919050565b6000819050919050565b6000620002716200026b62000265846200023c565b62000246565b6200023c565b9050919050565b6000819050919050565b6200028d8362000250565b620002a56200029c8262000278565b848454620001e6565b825550505050565b600090565b620002bc620002ad565b620002c981848462000282565b505050565b5b81811015620002f157620002e5600082620002b2565b600181019050620002cf565b5050565b601f82111562000340576200030a81620001b4565b6200031584620001c9565b8101602085101562000325578190505b6200033d6200033485620001c9565b830182620002ce565b50505b505050565b600082821c905092915050565b6000620003656000198460080262000345565b1980831691505092915050565b600062000380838362000352565b9150826002028217905092915050565b6200039b8262000116565b67ffffffffffffffff811115620003b757620003b662000121565b5b620003c382546200017f565b620003d0828285620002f5565b600060209050601f831160018114620004085760008415620003f3578287015190505b620003ff858262000372565b8655506200046f565b601f1984166200041886620001b4565b60005b8281101562000442578489015182556001820191506020850194506020810190506200041b565b868310156200046257848901516200045e601f89168262000352565b8355505b6001600288020188555050505b505050505050565b6139f280620004876000396000f3fe608060405234801561001057600080fd5b506004361061018e5760003560e01c806355f804b3116100de578063a22cb46511610097578063d547cfb711610071578063d547cfb7146104b9578063d85d3d27146104d7578063ded94688146104f3578063e985e9c5146105115761018e565b8063a22cb46514610451578063b88d4fde1461046d578063c87b56dd146104895761018e565b806355f804b31461037b57806359a7715a146103975780636352211e146103b557806370a08231146103e55780638da5cb5b1461041557806395d89b41146104335761018e565b806323b872dd1161014b57806342842e0e1161012557806342842e0e146102f757806342966c68146103135780634d197a9b1461032f5780634f6ccce71461034b5761018e565b806323b872dd1461027b5780632f745c5914610297578063423afa66146102c75761018e565b806301ffc9a71461019357806306fdde03146101c3578063081812fc146101e1578063090aa08e14610211578063095ea7b31461024157806318160ddd1461025d575b600080fd5b6101ad60048036038101906101a891906123a8565b610541565b6040516101ba91906123f0565b60405180910390f35b6101cb610553565b6040516101d891906124a4565b60405180910390f35b6101fb60048036038101906101f691906124fc565b6105e5565b604051610208919061256a565b60405180910390f35b61022b600480360381019061022691906124fc565b61066a565b60405161023891906124a4565b60405180910390f35b61025b600480360381019061025691906125b1565b61070a565b005b610265610821565b6040516102729190612600565b60405180910390f35b6102956004803603810190610290919061261b565b61082e565b005b6102b160048036038101906102ac91906125b1565b61088e565b6040516102be9190612600565b60405180910390f35b6102e160048036038101906102dc919061266e565b610933565b6040516102ee91906123f0565b60405180910390f35b610311600480360381019061030c919061261b565b610953565b005b61032d600480360381019061032891906124fc565b610973565b005b6103496004803603810190610344919061266e565b6109cf565b005b610365600480360381019061036091906124fc565b610aba565b6040516103729190612600565b60405180910390f35b610395600480360381019061039091906127d0565b610b2b565b005b61039f610bce565b6040516103ac9190612600565b60405180910390f35b6103cf60048036038101906103ca91906124fc565b610bdd565b6040516103dc919061256a565b60405180910390f35b6103ff60048036038101906103fa919061266e565b610c8e565b60405161040c9190612600565b60405180910390f35b61041d610d45565b60405161042a919061256a565b60405180910390f35b61043b610d6b565b60405161044891906124a4565b60405180910390f35b61046b60048036038101906104669190612845565b610dfd565b005b61048760048036038101906104829190612926565b610e13565b005b6104a3600480360381019061049e91906124fc565b610e75565b6040516104b091906124a4565b60405180910390f35b6104c1610f07565b6040516104ce91906124a4565b60405180910390f35b6104f160048036038101906104ec91906127d0565b610f95565b005b6104fb61106d565b604051610508919061256a565b60405180910390f35b61052b600480360381019061052691906129a9565b611097565b60405161053891906123f0565b60405180910390f35b600061054c8261112b565b9050919050565b60606000805461056290612a18565b80601f016020809104026020016040519081016040528092919081815260200182805461058e90612a18565b80156105db5780601f106105b0576101008083540402835291602001916105db565b820191906000526020600020905b8154815290600101906020018083116105be57829003601f168201915b5050505050905090565b60006105f0826111a5565b61062f576040517f08c379a000000000000000000000000000000000000000000000000000000000815260040161062690612abb565b60405180910390fd5b6004600083815260200190815260200160002060009054906101000a900473ffffffffffffffffffffffffffffffffffffffff169050919050565b600e602052806000526040600020600091509050805461068990612a18565b80601f01602080910402602001604051908101604052809291908181526020018280546106b590612a18565b80156107025780601f106106d757610100808354040283529160200191610702565b820191906000526020600020905b8154815290600101906020018083116106e557829003601f168201915b505050505081565b600061071582610bdd565b90508073ffffffffffffffffffffffffffffffffffffffff168373ffffffffffffffffffffffffffffffffffffffff1603610785576040517f08c379a000000000000000000000000000000000000000000000000000000000815260040161077c90612b4d565b60405180910390fd5b8073ffffffffffffffffffffffffffffffffffffffff166107a4611211565b73ffffffffffffffffffffffffffffffffffffffff1614806107d357506107d2816107cd611211565b611097565b5b610812576040517f08c379a000000000000000000000000000000000000000000000000000000000815260040161080990612bdf565b60405180910390fd5b61081c8383611219565b505050565b6000600880549050905090565b61083f610839611211565b826112d2565b61087e576040517f08c379a000000000000000000000000000000000000000000000000000000000815260040161087590612c71565b60405180910390fd5b6108898383836113b0565b505050565b600061089983610c8e565b82106108da576040517f08c379a00000000000000000000000000000000000000000000000000000000081526004016108d190612d03565b60405180910390fd5b600660008473ffffffffffffffffffffffffffffffffffffffff1673ffffffffffffffffffffffffffffffffffffffff168152602001908152602001600020600083815260200190815260200160002054905092915050565b600d6020528060005260406000206000915054906101000a900460ff1681565b61096e83838360405180602001604052806000815250610e13565b505050565b61098461097e611211565b826112d2565b6109c3576040517f08c379a00000000000000000000000000000000000000000000000000000000081526004016109ba90612d95565b60405180910390fd5b6109cc81611616565b50565b3373ffffffffffffffffffffffffffffffffffffffff16600b60009054906101000a900473ffffffffffffffffffffffffffffffffffffffff1673ffffffffffffffffffffffffffffffffffffffff1614610a5f576040517f08c379a0000000000000000000000000000000000000000000000000000000008152600401610a5690612e01565b60405180910390fd5b6001600d60008373ffffffffffffffffffffffffffffffffffffffff1673ffffffffffffffffffffffffffffffffffffffff16815260200190815260200160002060006101000a81548160ff02191690831515021790555050565b6000610ac4610821565b8210610b05576040517f08c379a0000000000000000000000000000000000000000000000000000000008152600401610afc90612e93565b60405180910390fd5b60088281548110610b1957610b18612eb3565b5b90600052602060002001549050919050565b3373ffffffffffffffffffffffffffffffffffffffff16600b60009054906101000a900473ffffffffffffffffffffffffffffffffffffffff1673ffffffffffffffffffffffffffffffffffffffff1614610bbb576040517f08c379a0000000000000000000000000000000000000000000000000000000008152600401610bb290612e01565b60405180910390fd5b80600c9081610bca919061308e565b5050565b6000610bd8611733565b905090565b6000806002600084815260200190815260200160002060009054906101000a900473ffffffffffffffffffffffffffffffffffffffff169050600073ffffffffffffffffffffffffffffffffffffffff168173ffffffffffffffffffffffffffffffffffffffff1603610c85576040517f08c379a0000000000000000000000000000000000000000000000000000000008152600401610c7c906131d2565b60405180910390fd5b80915050919050565b60008073ffffffffffffffffffffffffffffffffffffffff168273ffffffffffffffffffffffffffffffffffffffff1603610cfe576040517f08c379a0000000000000000000000000000000000000000000000000000000008152600401610cf590613264565b60405180910390fd5b600360008373ffffffffffffffffffffffffffffffffffffffff1673ffffffffffffffffffffffffffffffffffffffff168152602001908152602001600020549050919050565b600b60009054906101000a900473ffffffffffffffffffffffffffffffffffffffff1681565b606060018054610d7a90612a18565b80601f0160208091040260200160405190810160405280929190818152602001828054610da690612a18565b8015610df35780601f10610dc857610100808354040283529160200191610df3565b820191906000526020600020905b815481529060010190602001808311610dd657829003601f168201915b5050505050905090565b610e0f610e08611211565b8383611744565b5050565b610e24610e1e611211565b836112d2565b610e63576040517f08c379a0000000000000000000000000000000000000000000000000000000008152600401610e5a90612c71565b60405180910390fd5b610e6f848484846118b0565b50505050565b6060610e80826111a5565b610ebf576040517f08c379a0000000000000000000000000000000000000000000000000000000008152600401610eb6906132f6565b60405180910390fd5b6000610ec961190c565b905080600e6000858152602001908152602001600020604051602001610ef09291906133d5565b604051602081830303815290604052915050919050565b600c8054610f1490612a18565b80601f0160208091040260200160405190810160405280929190818152602001828054610f4090612a18565b8015610f8d5780601f10610f6257610100808354040283529160200191610f8d565b820191906000526020600020905b815481529060010190602001808311610f7057829003601f168201915b505050505081565b60011515600d60003373ffffffffffffffffffffffffffffffffffffffff1673ffffffffffffffffffffffffffffffffffffffff16815260200190815260200160002060009054906101000a900460ff16151514611028576040517f08c379a000000000000000000000000000000000000000000000000000000000815260040161101f90613445565b60405180910390fd5b6000611032611733565b905061103e600a61199e565b61104833826119b4565b81600e60008381526020019081526020016000209081611068919061308e565b505050565b6000600b60009054906101000a900473ffffffffffffffffffffffffffffffffffffffff16905090565b6000600560008473ffffffffffffffffffffffffffffffffffffffff1673ffffffffffffffffffffffffffffffffffffffff16815260200190815260200160002060008373ffffffffffffffffffffffffffffffffffffffff1673ffffffffffffffffffffffffffffffffffffffff16815260200190815260200160002060009054906101000a900460ff16905092915050565b60007f780e9d63000000000000000000000000000000000000000000000000000000007bffffffffffffffffffffffffffffffffffffffffffffffffffffffff1916827bffffffffffffffffffffffffffffffffffffffffffffffffffffffff1916148061119e575061119d826119d2565b5b9050919050565b60008073ffffffffffffffffffffffffffffffffffffffff166002600084815260200190815260200160002060009054906101000a900473ffffffffffffffffffffffffffffffffffffffff1673ffffffffffffffffffffffffffffffffffffffff1614159050919050565b600033905090565b816004600083815260200190815260200160002060006101000a81548173ffffffffffffffffffffffffffffffffffffffff021916908373ffffffffffffffffffffffffffffffffffffffff160217905550808273ffffffffffffffffffffffffffffffffffffffff1661128c83610bdd565b73ffffffffffffffffffffffffffffffffffffffff167f8c5be1e5ebec7d5bd14f71427d1e84f3dd0314c0f7b2291e5b200ac8c7c3b92560405160405180910390a45050565b60006112dd826111a5565b61131c576040517f08c379a0000000000000000000000000000000000000000000000000000000008152600401611313906134d7565b60405180910390fd5b600061132783610bdd565b90508073ffffffffffffffffffffffffffffffffffffffff168473ffffffffffffffffffffffffffffffffffffffff16148061139657508373ffffffffffffffffffffffffffffffffffffffff1661137e846105e5565b73ffffffffffffffffffffffffffffffffffffffff16145b806113a757506113a68185611097565b5b91505092915050565b8273ffffffffffffffffffffffffffffffffffffffff166113d082610bdd565b73ffffffffffffffffffffffffffffffffffffffff1614611426576040517f08c379a000000000000000000000000000000000000000000000000000000000815260040161141d90613569565b60405180910390fd5b600073ffffffffffffffffffffffffffffffffffffffff168273ffffffffffffffffffffffffffffffffffffffff1603611495576040517f08c379a000000000000000000000000000000000000000000000000000000000815260040161148c906135fb565b60405180910390fd5b6114a0838383611ab4565b6114ab600082611219565b6001600360008573ffffffffffffffffffffffffffffffffffffffff1673ffffffffffffffffffffffffffffffffffffffff16815260200190815260200160002060008282546114fb919061364a565b925050819055506001600360008473ffffffffffffffffffffffffffffffffffffffff1673ffffffffffffffffffffffffffffffffffffffff1681526020019081526020016000206000828254611552919061367e565b92505081905550816002600083815260200190815260200160002060006101000a81548173ffffffffffffffffffffffffffffffffffffffff021916908373ffffffffffffffffffffffffffffffffffffffff160217905550808273ffffffffffffffffffffffffffffffffffffffff168473ffffffffffffffffffffffffffffffffffffffff167fddf252ad1be2c89b69c2b068fc378daa952ba7f163c4a11628f55a4df523b3ef60405160405180910390a4611611838383611ac4565b505050565b600061162182610bdd565b905061162f81600084611ab4565b61163a600083611219565b6001600360008373ffffffffffffffffffffffffffffffffffffffff1673ffffffffffffffffffffffffffffffffffffffff168152602001908152602001600020600082825461168a919061364a565b925050819055506002600083815260200190815260200160002060006101000a81549073ffffffffffffffffffffffffffffffffffffffff021916905581600073ffffffffffffffffffffffffffffffffffffffff168273ffffffffffffffffffffffffffffffffffffffff167fddf252ad1be2c89b69c2b068fc378daa952ba7f163c4a11628f55a4df523b3ef60405160405180910390a461172f81600084611ac4565b5050565b600061173f600a611ac9565b905090565b8173ffffffffffffffffffffffffffffffffffffffff168373ffffffffffffffffffffffffffffffffffffffff16036117b2576040517f08c379a00000000000000000000000000000000000000000000000000000000081526004016117a990613720565b60405180910390fd5b80600560008573ffffffffffffffffffffffffffffffffffffffff1673ffffffffffffffffffffffffffffffffffffffff16815260200190815260200160002060008473ffffffffffffffffffffffffffffffffffffffff1673ffffffffffffffffffffffffffffffffffffffff16815260200190815260200160002060006101000a81548160ff0219169083151502179055508173ffffffffffffffffffffffffffffffffffffffff168373ffffffffffffffffffffffffffffffffffffffff167f17307eab39ab6107e8899845ad3d59bd9653f200f220920489ca2b5937696c31836040516118a391906123f0565b60405180910390a3505050565b6118bb8484846113b0565b6118c784848484611ad7565b611906576040517f08c379a00000000000000000000000000000000000000000000000000000000081526004016118fd906137b2565b60405180910390fd5b50505050565b6060600c805461191b90612a18565b80601f016020809104026020016040519081016040528092919081815260200182805461194790612a18565b80156119945780601f1061196957610100808354040283529160200191611994565b820191906000526020600020905b81548152906001019060200180831161197757829003601f168201915b5050505050905090565b6001816000016000828254019250508190555050565b6119ce828260405180602001604052806000815250611c5e565b5050565b60007f80ac58cd000000000000000000000000000000000000000000000000000000007bffffffffffffffffffffffffffffffffffffffffffffffffffffffff1916827bffffffffffffffffffffffffffffffffffffffffffffffffffffffff19161480611a9d57507f5b5e139f000000000000000000000000000000000000000000000000000000007bffffffffffffffffffffffffffffffffffffffffffffffffffffffff1916827bffffffffffffffffffffffffffffffffffffffffffffffffffffffff1916145b80611aad5750611aac82611cb9565b5b9050919050565b611abf838383611d23565b505050565b505050565b600081600001549050919050565b6000611af88473ffffffffffffffffffffffffffffffffffffffff16611e35565b15611c51578373ffffffffffffffffffffffffffffffffffffffff1663150b7a02611b21611211565b8786866040518563ffffffff1660e01b8152600401611b439493929190613827565b6020604051808303816000875af1925050508015611b7f57506040513d601f19601f82011682018060405250810190611b7c9190613888565b60015b611c01573d8060008114611baf576040519150601f19603f3d011682016040523d82523d6000602084013e611bb4565b606091505b506000815103611bf9576040517f08c379a0000000000000000000000000000000000000000000000000000000008152600401611bf0906137b2565b60405180910390fd5b805181602001fd5b63150b7a0260e01b7bffffffffffffffffffffffffffffffffffffffffffffffffffffffff1916817bffffffffffffffffffffffffffffffffffffffffffffffffffffffff191614915050611c56565b600190505b949350505050565b611c688383611e58565b611c756000848484611ad7565b611cb4576040517f08c379a0000000000000000000000000000000000000000000000000000000008152600401611cab906137b2565b60405180910390fd5b505050565b60007f01ffc9a7000000000000000000000000000000000000000000000000000000007bffffffffffffffffffffffffffffffffffffffffffffffffffffffff1916827bffffffffffffffffffffffffffffffffffffffffffffffffffffffff1916149050919050565b611d2e838383612031565b600073ffffffffffffffffffffffffffffffffffffffff168373ffffffffffffffffffffffffffffffffffffffff1603611d7057611d6b81612036565b611daf565b8173ffffffffffffffffffffffffffffffffffffffff168373ffffffffffffffffffffffffffffffffffffffff1614611dae57611dad838261207f565b5b5b600073ffffffffffffffffffffffffffffffffffffffff168273ffffffffffffffffffffffffffffffffffffffff1603611df157611dec816121ec565b611e30565b8273ffffffffffffffffffffffffffffffffffffffff168273ffffffffffffffffffffffffffffffffffffffff1614611e2f57611e2e82826122bd565b5b5b505050565b6000808273ffffffffffffffffffffffffffffffffffffffff163b119050919050565b600073ffffffffffffffffffffffffffffffffffffffff168273ffffffffffffffffffffffffffffffffffffffff1603611ec7576040517f08c379a0000000000000000000000000000000000000000000000000000000008152600401611ebe90613901565b60405180910390fd5b611ed0816111a5565b15611f10576040517f08c379a0000000000000000000000000000000000000000000000000000000008152600401611f079061396d565b60405180910390fd5b611f1c60008383611ab4565b6001600360008473ffffffffffffffffffffffffffffffffffffffff1673ffffffffffffffffffffffffffffffffffffffff1681526020019081526020016000206000828254611f6c919061367e565b92505081905550816002600083815260200190815260200160002060006101000a81548173ffffffffffffffffffffffffffffffffffffffff021916908373ffffffffffffffffffffffffffffffffffffffff160217905550808273ffffffffffffffffffffffffffffffffffffffff16600073ffffffffffffffffffffffffffffffffffffffff167fddf252ad1be2c89b69c2b068fc378daa952ba7f163c4a11628f55a4df523b3ef60405160405180910390a461202d60008383611ac4565b5050565b505050565b6008805490506009600083815260200190815260200160002081905550600881908060018154018082558091505060019003906000526020600020016000909190919091505550565b6000600161208c84610c8e565b612096919061364a565b905060006007600084815260200190815260200160002054905081811461217b576000600660008673ffffffffffffffffffffffffffffffffffffffff1673ffffffffffffffffffffffffffffffffffffffff168152602001908152602001600020600084815260200190815260200160002054905080600660008773ffffffffffffffffffffffffffffffffffffffff1673ffffffffffffffffffffffffffffffffffffffff168152602001908152602001600020600084815260200190815260200160002081905550816007600083815260200190815260200160002081905550505b6007600084815260200190815260200160002060009055600660008573ffffffffffffffffffffffffffffffffffffffff1673ffffffffffffffffffffffffffffffffffffffff16815260200190815260200160002060008381526020019081526020016000206000905550505050565b60006001600880549050612200919061364a565b90506000600960008481526020019081526020016000205490506000600883815481106122305761222f612eb3565b5b90600052602060002001549050806008838154811061225257612251612eb3565b5b9060005260206000200181905550816009600083815260200190815260200160002081905550600960008581526020019081526020016000206000905560088054806122a1576122a061398d565b5b6001900381819060005260206000200160009055905550505050565b60006122c883610c8e565b905081600660008573ffffffffffffffffffffffffffffffffffffffff1673ffffffffffffffffffffffffffffffffffffffff168152602001908152602001600020600083815260200190815260200160002081905550806007600084815260200190815260200160002081905550505050565b6000604051905090565b600080fd5b600080fd5b60007fffffffff0000000000000000000000000000000000000000000000000000000082169050919050565b61238581612350565b811461239057600080fd5b50565b6000813590506123a28161237c565b92915050565b6000602082840312156123be576123bd612346565b5b60006123cc84828501612393565b91505092915050565b60008115159050919050565b6123ea816123d5565b82525050565b600060208201905061240560008301846123e1565b92915050565b600081519050919050565b600082825260208201905092915050565b60005b8381101561244557808201518184015260208101905061242a565b83811115612454576000848401525b50505050565b6000601f19601f8301169050919050565b60006124768261240b565b6124808185612416565b9350612490818560208601612427565b6124998161245a565b840191505092915050565b600060208201905081810360008301526124be818461246b565b905092915050565b6000819050919050565b6124d9816124c6565b81146124e457600080fd5b50565b6000813590506124f6816124d0565b92915050565b60006020828403121561251257612511612346565b5b6000612520848285016124e7565b91505092915050565b600073ffffffffffffffffffffffffffffffffffffffff82169050919050565b600061255482612529565b9050919050565b61256481612549565b82525050565b600060208201905061257f600083018461255b565b92915050565b61258e81612549565b811461259957600080fd5b50565b6000813590506125ab81612585565b92915050565b600080604083850312156125c8576125c7612346565b5b60006125d68582860161259c565b92505060206125e7858286016124e7565b9150509250929050565b6125fa816124c6565b82525050565b600060208201905061261560008301846125f1565b92915050565b60008060006060848603121561263457612633612346565b5b60006126428682870161259c565b93505060206126538682870161259c565b9250506040612664868287016124e7565b9150509250925092565b60006020828403121561268457612683612346565b5b60006126928482850161259c565b91505092915050565b600080fd5b600080fd5b7f4e487b7100000000000000000000000000000000000000000000000000000000600052604160045260246000fd5b6126dd8261245a565b810181811067ffffffffffffffff821117156126fc576126fb6126a5565b5b80604052505050565b600061270f61233c565b905061271b82826126d4565b919050565b600067ffffffffffffffff82111561273b5761273a6126a5565b5b6127448261245a565b9050602081019050919050565b82818337600083830152505050565b600061277361276e84612720565b612705565b90508281526020810184848401111561278f5761278e6126a0565b5b61279a848285612751565b509392505050565b600082601f8301126127b7576127b661269b565b5b81356127c7848260208601612760565b91505092915050565b6000602082840312156127e6576127e5612346565b5b600082013567ffffffffffffffff8111156128045761280361234b565b5b612810848285016127a2565b91505092915050565b612822816123d5565b811461282d57600080fd5b50565b60008135905061283f81612819565b92915050565b6000806040838503121561285c5761285b612346565b5b600061286a8582860161259c565b925050602061287b85828601612830565b9150509250929050565b600067ffffffffffffffff8211156128a05761289f6126a5565b5b6128a98261245a565b9050602081019050919050565b60006128c96128c484612885565b612705565b9050828152602081018484840111156128e5576128e46126a0565b5b6128f0848285612751565b509392505050565b600082601f83011261290d5761290c61269b565b5b813561291d8482602086016128b6565b91505092915050565b600080600080608085870312156129405761293f612346565b5b600061294e8782880161259c565b945050602061295f8782880161259c565b9350506040612970878288016124e7565b925050606085013567ffffffffffffffff8111156129915761299061234b565b5b61299d878288016128f8565b91505092959194509250565b600080604083850312156129c0576129bf612346565b5b60006129ce8582860161259c565b92505060206129df8582860161259c565b9150509250929050565b7f4e487b7100000000000000000000000000000000000000000000000000000000600052602260045260246000fd5b60006002820490506001821680612a3057607f821691505b602082108103612a4357612a426129e9565b5b50919050565b7f4552433732313a20617070726f76656420717565727920666f72206e6f6e657860008201527f697374656e7420746f6b656e0000000000000000000000000000000000000000602082015250565b6000612aa5602c83612416565b9150612ab082612a49565b604082019050919050565b60006020820190508181036000830152612ad481612a98565b9050919050565b7f4552433732313a20617070726f76616c20746f2063757272656e74206f776e6560008201527f7200000000000000000000000000000000000000000000000000000000000000602082015250565b6000612b37602183612416565b9150612b4282612adb565b604082019050919050565b60006020820190508181036000830152612b6681612b2a565b9050919050565b7f4552433732313a20617070726f76652063616c6c6572206973206e6f74206f7760008201527f6e6572206e6f7220617070726f76656420666f7220616c6c0000000000000000602082015250565b6000612bc9603883612416565b9150612bd482612b6d565b604082019050919050565b60006020820190508181036000830152612bf881612bbc565b9050919050565b7f4552433732313a207472616e736665722063616c6c6572206973206e6f74206f60008201527f776e6572206e6f7220617070726f766564000000000000000000000000000000602082015250565b6000612c5b603183612416565b9150612c6682612bff565b604082019050919050565b60006020820190508181036000830152612c8a81612c4e565b9050919050565b7f455243373231456e756d657261626c653a206f776e657220696e646578206f7560008201527f74206f6620626f756e6473000000000000000000000000000000000000000000602082015250565b6000612ced602b83612416565b9150612cf882612c91565b604082019050919050565b60006020820190508181036000830152612d1c81612ce0565b9050919050565b7f4552433732314275726e61626c653a2063616c6c6572206973206e6f74206f7760008201527f6e6572206e6f7220617070726f76656400000000000000000000000000000000602082015250565b6000612d7f603083612416565b9150612d8a82612d23565b604082019050919050565b60006020820190508181036000830152612dae81612d72565b9050919050565b7f43616c6c6572206973206e6f74204f776e657200000000000000000000000000600082015250565b6000612deb601383612416565b9150612df682612db5565b602082019050919050565b60006020820190508181036000830152612e1a81612dde565b9050919050565b7f455243373231456e756d657261626c653a20676c6f62616c20696e646578206f60008201527f7574206f6620626f756e64730000000000000000000000000000000000000000602082015250565b6000612e7d602c83612416565b9150612e8882612e21565b604082019050919050565b60006020820190508181036000830152612eac81612e70565b9050919050565b7f4e487b7100000000000000000000000000000000000000000000000000000000600052603260045260246000fd5b60008190508160005260206000209050919050565b60006020601f8301049050919050565b600082821b905092915050565b600060088302612f447fffffffffffffffffffffffffffffffffffffffffffffffffffffffffffffffff82612f07565b612f4e8683612f07565b95508019841693508086168417925050509392505050565b6000819050919050565b6000612f8b612f86612f81846124c6565b612f66565b6124c6565b9050919050565b6000819050919050565b612fa583612f70565b612fb9612fb182612f92565b848454612f14565b825550505050565b600090565b612fce612fc1565b612fd9818484612f9c565b505050565b5b81811015612ffd57612ff2600082612fc6565b600181019050612fdf565b5050565b601f8211156130425761301381612ee2565b61301c84612ef7565b8101602085101561302b578190505b61303f61303785612ef7565b830182612fde565b50505b505050565b600082821c905092915050565b600061306560001984600802613047565b1980831691505092915050565b600061307e8383613054565b9150826002028217905092915050565b6130978261240b565b67ffffffffffffffff8111156130b0576130af6126a5565b5b6130ba8254612a18565b6130c5828285613001565b600060209050601f8311600181146130f857600084156130e6578287015190505b6130f08582613072565b865550613158565b601f19841661310686612ee2565b60005b8281101561312e57848901518255600182019150602085019450602081019050613109565b8683101561314b5784890151613147601f891682613054565b8355505b6001600288020188555050505b505050505050565b7f4552433732313a206f776e657220717565727920666f72206e6f6e657869737460008201527f656e7420746f6b656e0000000000000000000000000000000000000000000000602082015250565b60006131bc602983612416565b91506131c782613160565b604082019050919050565b600060208201905081810360008301526131eb816131af565b9050919050565b7f4552433732313a2062616c616e636520717565727920666f7220746865207a6560008201527f726f206164647265737300000000000000000000000000000000000000000000602082015250565b600061324e602a83612416565b9150613259826131f2565b604082019050919050565b6000602082019050818103600083015261327d81613241565b9050919050565b7f4552433732314d657461646174613a2055524920717565727920666f72206e6f60008201527f6e6578697374656e7420746f6b656e0000000000000000000000000000000000602082015250565b60006132e0602f83612416565b91506132eb82613284565b604082019050919050565b6000602082019050818103600083015261330f816132d3565b9050919050565b600081905092915050565b600061332c8261240b565b6133368185613316565b9350613346818560208601612427565b80840191505092915050565b6000815461335f81612a18565b6133698186613316565b945060018216600081146133845760018114613399576133cc565b60ff19831686528115158202860193506133cc565b6133a285612ee2565b60005b838110156133c4578154818901526001820191506020810190506133a5565b838801955050505b50505092915050565b60006133e18285613321565b91506133ed8284613352565b91508190509392505050565b7f55736572206e6f7420616c6c6f77656420746f206d696e740000000000000000600082015250565b600061342f601883612416565b915061343a826133f9565b602082019050919050565b6000602082019050818103600083015261345e81613422565b9050919050565b7f4552433732313a206f70657261746f7220717565727920666f72206e6f6e657860008201527f697374656e7420746f6b656e0000000000000000000000000000000000000000602082015250565b60006134c1602c83612416565b91506134cc82613465565b604082019050919050565b600060208201905081810360008301526134f0816134b4565b9050919050565b7f4552433732313a207472616e736665722066726f6d20696e636f72726563742060008201527f6f776e6572000000000000000000000000000000000000000000000000000000602082015250565b6000613553602583612416565b915061355e826134f7565b604082019050919050565b6000602082019050818103600083015261358281613546565b9050919050565b7f4552433732313a207472616e7366657220746f20746865207a65726f2061646460008201527f7265737300000000000000000000000000000000000000000000000000000000602082015250565b60006135e5602483612416565b91506135f082613589565b604082019050919050565b60006020820190508181036000830152613614816135d8565b9050919050565b7f4e487b7100000000000000000000000000000000000000000000000000000000600052601160045260246000fd5b6000613655826124c6565b9150613660836124c6565b9250828210156136735761367261361b565b5b828203905092915050565b6000613689826124c6565b9150613694836124c6565b9250827fffffffffffffffffffffffffffffffffffffffffffffffffffffffffffffffff038211156136c9576136c861361b565b5b828201905092915050565b7f4552433732313a20617070726f766520746f2063616c6c657200000000000000600082015250565b600061370a601983612416565b9150613715826136d4565b602082019050919050565b60006020820190508181036000830152613739816136fd565b9050919050565b7f4552433732313a207472616e7366657220746f206e6f6e20455243373231526560008201527f63656976657220696d706c656d656e7465720000000000000000000000000000602082015250565b600061379c603283612416565b91506137a782613740565b604082019050919050565b600060208201905081810360008301526137cb8161378f565b9050919050565b600081519050919050565b600082825260208201905092915050565b60006137f9826137d2565b61380381856137dd565b9350613813818560208601612427565b61381c8161245a565b840191505092915050565b600060808201905061383c600083018761255b565b613849602083018661255b565b61385660408301856125f1565b818103606083015261386881846137ee565b905095945050505050565b6000815190506138828161237c565b92915050565b60006020828403121561389e5761389d612346565b5b60006138ac84828501613873565b91505092915050565b7f4552433732313a206d696e7420746f20746865207a65726f2061646472657373600082015250565b60006138eb602083612416565b91506138f6826138b5565b602082019050919050565b6000602082019050818103600083015261391a816138de565b9050919050565b7f4552433732313a20746f6b656e20616c7265616479206d696e74656400000000600082015250565b6000613957601c83612416565b915061396282613921565b602082019050919050565b600060208201905081810360008301526139868161394a565b9050919050565b7f4e487b7100000000000000000000000000000000000000000000000000000000600052603160045260246000fdfea2646970667358221220f885c7959e56b23d31f989910ea60ec3d81a1186e960575ef69984cd8572ef6164736f6c634300080f003368747470733a2f2f676174657761792e70696e6174612e636c6f75642f697066732f",
  "immutableReferences": {},
  "source": "// SPDX-License-Identifier: GPL-3.0\n\npragma solidity ^0.8.0;\n\nimport \"@openzeppelin/contracts/token/ERC721/ERC721.sol\";\nimport \"@openzeppelin/contracts/token/ERC721/extensions/ERC721Enumerable.sol\";\nimport \"@openzeppelin/contracts/token/ERC721/extensions/ERC721Burnable.sol\";\nimport \"@openzeppelin/contracts/utils/math/SafeMath.sol\";\nimport \"@openzeppelin/contracts/utils/Counters.sol\";\n\ncontract musicbitboom is ERC721, ERC721Enumerable, ERC721Burnable  {\n\n    using Strings for uint256;\n\tusing SafeMath for uint256;\n    using Counters for Counters.Counter;\n\n\tCounters.Counter private _tokenIdTracker;\n\n    address public owner;\n    string public baseTokenURI = \"https://gateway.pinata.cloud/ipfs/\";\n    mapping(address => bool) public allowedMinters;\n    mapping(uint256 => string) public nftsIpfsHashes;\n\n\tmodifier onlyOwner() {\n        require(owner == msg.sender, \"Caller is not Owner\");\n  \t    _;\n    }\n\n    constructor() ERC721(\"MusicBitBoom\", \"MBB\") {\n        //owner should be set to fiverr user address;\t\n\t    owner = msg.sender;\n    }\n\n    function showOwner() public view returns (address) {\n        return(owner);\n    }\n\n\tfunction _totalSupply() internal view returns (uint) {\n  \t    return _tokenIdTracker.current();\n    }\n\n    function totalMint() public view returns (uint256) {\n        return _totalSupply();\n    }\n\n    function approveMinter(address addr) public onlyOwner {\n        allowedMinters[addr] = true;\n    }\n\n    function mint(string memory ipfsHash) public {\n\n        require(allowedMinters[msg.sender] == true, \"User not allowed to mint\");\n\n\t\tuint id = _totalSupply();\n        _tokenIdTracker.increment();\n\t\t_safeMint(msg.sender, id);\n\n\t\tnftsIpfsHashes[id] = ipfsHash;\n\t}\n\n    function setBaseURI(string memory baseURI) public onlyOwner {\n  \t    baseTokenURI = baseURI;\n    }\n\n\tfunction _baseURI() internal view virtual override returns (string memory) {\n  \t    return baseTokenURI;\n    }\n\n\tfunction tokenURI(uint256 tokenId)\n    public\n    view\n    virtual\n    override\n    returns (string memory)\n    {\n        require(\n          _exists(tokenId),\n          \"ERC721Metadata: URI query for nonexistent token\"\n        );\n\n        //string memory currentBaseURI = _baseURI();\n        //return bytes(currentBaseURI).length > 0\n        //? string(abi.encodePacked(currentBaseURI, tokenId.toString(), baseExtension))\n        //: \"\";\n        string memory currentBaseURI = _baseURI();\n        return string(abi.encodePacked(currentBaseURI, nftsIpfsHashes[tokenId]));\n    }\n\n\tfunction _beforeTokenTransfer(\n    address from,\n    address to,\n  \tuint256 tokenId\n    ) internal virtual override(ERC721, ERC721Enumerable) {\n  \t    super._beforeTokenTransfer(from, to, tokenId);\n    }\n\n    function supportsInterface(bytes4 interfaceId) public view virtual override(ERC721, ERC721Enumerable) returns (bool) {\n  \t    return super.supportsInterface(interfaceId);\n    }\n}\n",
  "sourcePath": "/home/simone/fiverr/musicBitBoom/src/contracts/musicbitboom.sol",
  "compiler": {
    "name": "solc",
    "version": "0.8.15+commit.e14f2714.Emscripten.clang"
  },
  "schemaVersion": "3.4.3",
  "updatedAt": "2022-08-06T10:46:00.978Z",
  "devdoc": {
    "kind": "dev",
    "methods": {
      "approve(address,uint256)": {
        "details": "See {IERC721-approve}."
      },
      "balanceOf(address)": {
        "details": "See {IERC721-balanceOf}."
      },
      "burn(uint256)": {
        "details": "Burns `tokenId`. See {ERC721-_burn}. Requirements: - The caller must own `tokenId` or be an approved operator."
      },
      "getApproved(uint256)": {
        "details": "See {IERC721-getApproved}."
      },
      "isApprovedForAll(address,address)": {
        "details": "See {IERC721-isApprovedForAll}."
      },
      "name()": {
        "details": "See {IERC721Metadata-name}."
      },
      "ownerOf(uint256)": {
        "details": "See {IERC721-ownerOf}."
      },
      "safeTransferFrom(address,address,uint256)": {
        "details": "See {IERC721-safeTransferFrom}."
      },
      "safeTransferFrom(address,address,uint256,bytes)": {
        "details": "See {IERC721-safeTransferFrom}."
      },
      "setApprovalForAll(address,bool)": {
        "details": "See {IERC721-setApprovalForAll}."
      },
      "symbol()": {
        "details": "See {IERC721Metadata-symbol}."
      },
      "tokenByIndex(uint256)": {
        "details": "See {IERC721Enumerable-tokenByIndex}."
      },
      "tokenOfOwnerByIndex(address,uint256)": {
        "details": "See {IERC721Enumerable-tokenOfOwnerByIndex}."
      },
      "tokenURI(uint256)": {
        "details": "See {IERC721Metadata-tokenURI}."
      },
      "totalSupply()": {
        "details": "See {IERC721Enumerable-totalSupply}."
      },
      "transferFrom(address,address,uint256)": {
        "details": "See {IERC721-transferFrom}."
      }
    },
    "version": 1
  },
  "userdoc": {
    "kind": "user",
    "methods": {},
    "version": 1
  }
}